:0600000000F039EF00F0F2
:10000800FFFF3C82D9CF3AF0DACF3BF00C0E6E18E6
:10001800D8A411EF00F014EF00F0FFFF20EF00F07C
:10002800FFFFA4A01AEF00F01DEF00F0FFFF20EF84
:1000380000F0FFFFBEEC01F0FFFF828034EC02F01D
:10004800080E6F18D8A42BEF00F02EEF00F0FFFF7A
:1000580031EF00F0FFFF7CEC01F0FFFF3BC0DAFF5F
:100068003AC0D9FF3C921100FFFF20EF02F0FFFFDA
:1000780020EE16F0070EDE6AE806FDE21D501C10A1
:100088001B101A1019100DE11628FF0E1758FF0E35
:100098001858D8A052EF00F055EF00F0FFFF58EFC6
:1000A80000F0FFFF76EF00F0FFFF010E1626000EAE
:1000B8001722182219221A221B221C221D221D5027
:1000C8001C101B101A1019100DE11628FF0E1758D6
:1000D800FF0E1858D8A073EF00F076EF00F0FFFF7E
:1000E80058EF00F0FFFF000E376E16C02FF017C054
:1000F80030F018C031F019C032F01AC033F01BC00C
:1001080034F01CC035F01DC036F0050E96EF00F037
:10011800FFFFD89036323532343233323232313210
:1001280030322F32FFFFE82E8CEF00F02F503010C6
:10013800311032103310341035103610D8B4A7EF00
:1001480000F0AAEF00F0FFFFADEF00F0FFFF010E97
:10015800376EFFFF37501200FFFFFFFF20EE16F04B
:10016800070EDE6AE806FDE21D501C101B101A106F
:1001780019100DE11628FF0E1758FF0E1858D8A0B1
:10018800C8EF00F0CBEF00F0FFFFCEEF00F0FFFF6D
:10019800ECEF00F0FFFF010E1626000E17221822C2
:1001A80019221A221B221C221D221D501C101B1052
:1001B8001A1019100DE11628FF0E1758FF0E1858BF
:1001C800D8A0E9EF00F0ECEF00F0FFFFCEEF00F071
:1001D800FFFF000E376E16C02FF017C030F018C0A2
:1001E80031F019C032F01AC033F01BC034F01CC013
:1001F80035F01DC036F0030E0CEF01F0FFFFD8906C
:1002080036323532343233323232313230322F32C2
:10021800FFFFE82E02EF01F02F503010311032109E
:100228003310341035103610D8B41DEF01F020EF1C
:1002380001F0FFFF23EF01F0FFFF010E376EFFFF14
:1002480037501200FFFFFFFF20EE16F0070EDE6AA0
:10025800E806FDE21D501C101B101A1019100DE1C4
:100268001628FF0E1758FF0E1858D8A03EEF01F0B9
:1002780041EF01F0FFFF44EF01F0FFFF62EF01F0F3
:10028800FFFF010E1626000E1722182219221A2225
:100298001B221C221D221D501C101B101A10191085
:1002A8000DE11628FF0E1758FF0E1858D8A05FEF5B
:1002B80001F062EF01F0FFFF44EF01F0FFFF000ED5
:1002C8002F6E16501710181019101A101B101C102A
:1002D8001D10D8B472EF01F075EF01F0FFFF78EF51
:1002E80001F0FFFF010E2F6EFFFF2F501200FFFFDE
:1002F800FFFF000EE8CF40FF080EE8CF41FF400E99
:10030800E8CF42FF080EE8CF45FFFF0EE8CF46FFD3
:10031800FF0EE8CF47FFFF0EE8CF48FFFF0EE8CFFC
:1003280049FF0B500A5C086E2FEE4AF008C0DFFF49
:1003380027EC01F0386E38C04BFFB1EC00F0386E96
:1003480038C04CFF3BEC00F0386E38C04DFF2FEE44
:1003580040F00F01DF860A0E396E850E386E9F0E4B
:10036800FFFFE82EFDD7382EFBD7392EF9D700D05E
:100378001200FFFFFFFF829060AEC5EF01F0C8EFEB
:1003880001F0FFFFDFEF01F0FFFF65CF01F062CF63
:1003980002F061CF03F066CF04F067CF05F068CFB5
:1003A80006F069CF07F06ACF08F06BCF09F06CCF81
:1003B8000AF06DCF0BF0FFFF1200FFFFFFFFFFFFFA
:1003C800800E6F6EFFFF800E6E18D8A4EEEF01F05E
:1003D800F1EF01F0FFFFE6EF01F0FFFFC10E706ED5
:1003E800AE0E716E450E726E200E736E000E6F6E3D
:1003F8001200FFFFFFFF0C0E6F6E4C0EE8CF00FFE0
:10040800A00EE8CF01FFFF0EE8CF18FFE00EE8CFFF
:1004180019FF000E606E1200FFFFFFFF000E946EC2
:1004280082902BEC02F0E3EC01F0FEEC01F0FFFF10
:100438001BEF02F039EF00F000EE01F02E0EEE6A2D
:10044800E806FDE13C903C92000111EF02F0FFFF4D
:1004580093949386F28EF28CA380A5801200FFFFFE
:0C046800FFFF080E6F6E1200FFFFFFFF89
:020000040020DA
:08000000FFFFFFFFFFFFFFFF00
:020000040030CA
:04000000FF220F0EBE
:0800060085FF0FC00FE00F4061
:00000001FF
